:100000000A128A11E02FFF1B0D2883137F18831714
:100010000008840A0319FF0A080000308A00040857
:10002000840A82070034463449345234453420343B
:1000300044344534543445344334543445344434DE
:1000400020340034203442344C3455344534543454
:100050004F344F3454344834203400342034203466
:10006000203466346F3472347734613472346434DB
:10007000203400342034203420347234693467341E
:100080006834743420340034413454342B344334D1
:100090004D34473453343D3422340034203420343A
:1000A00020346234613463346B34203400342034BF
:1000B000203420346C346534663474342034003495
:1000C000573445344C3443344F344D344534003484
:0C00D000683465346C346C346F340034D8
:1008880064008001840A0406031900340406452C18
:1008980000300A128A11B5240A128A1101300A128C
:1008A8008A11B524080083120313981C5D2C1812B2
:1008B80018168C1E632C8C1E5F2C1A08080000303A
:1008C80008007E088A007F08820065240A128A11BF
:1008D8008000840A04087D0603190034FF0A0319FE
:1008E800FE0A692C0D308312031399000D30F200B3
:1008F800AF30F100B630F000F00B802CF10B802CFB
:10090800F20B802C00000800F20083160313981CD9
:10091800892C72088312031399000430F1003D30CA
:10092800F000F00B952CF10B952C9A2C0800F00098
:10093800701CA22C831203130816A52C8312031310
:100948000812F01CA92C8816AA2C8812701DAE2C2F
:100958000817AF2C0813F01DB32C8817080088134C
:100968000800F300831203138810081173080A1291
:100978008A119B240A128A118312031308141A304D
:10098800F200F830F100F10BC72CF20BC72C000075
:10099800831203130810080083160313871707131D
:1009A800243098001815903083120313980083168A
:1009B8000313981683120313981783160313181238
:1009C800831203131816831603139816813099009F
:1009D8000800F700F501F6017508770784000A1288
:1009E8008A110D200A128A11003A031908007508A5
:1009F800770784000A128A110D200A128A110A1236
:100A08008A110F250A128A110130F5070318F60A10
:100A18000030F607F02CF40074080F39F100710863
:100A2800F2007408F039F1007108F300831203131F
:100A3800881408117308F10004300310F10CFF3E0C
:100A4800031D212D71080A128A119B240A128A118A
:100A58008312031308144230F100F10B312D00000A
:100A680083120313081072080A128A119B240A12AF
:100A78008A118312031308144230F100F10B422D3E
:100A880000008312031308100800413454342B3437
:100A9800433453344D3450343D34313437342C34AA
:100AA8003134363437342C3430342C343034003448
:100AB800413454342B3443345334433453343D3465
:100AC8002234473453344D3422340D3400346834DE
:100AD80048344834483448340034413454342B348E
:100AE80043344D34473446343D3431340034413492
:100AF8005434453430340034413454340034F8012B
:100B0800F90178087307F6007408F5000318F50A68
:100B1800F81BF5037508F700770883120313FF0025
:100B2800760884000A128A1103200A128A11003AF0
:100B38000319080078087307F6007408F50003180D
:100B4800F50AF81BF5037508F700770883120313F5
:100B5800FF00760884000A128A1103200A128A11FB
:100B68000A128A1188240A128A110130F807031818
:100B7800F90A0030F907852DF7007703031DE52DE5
:100B880074087F3EF5007508FA007A08F50004300D
:100B98000310F50CFF3E031DCC2D7508F6007608F2
:100BA800F8007A080F39F5007508F90078080A1274
:100BB8008A11B5240A128A1179080A128A11B524F1
:100BC800080002307706031D08007408BF3EF500D0
:100BD8007508FA007A08F50004300310F50CFF3E9A
:100BE800031DF12D7508F6007608F8007A080F390C
:100BF800F5007508F90078080A128A11B5240A1256
:100C08008A1179080A128A11B524080000300A12DC
:100C18008A119B240A128A118230F500DD30F40013
:100C2800F40B142EF50B142E192E03300A128A1108
:100C3800B5240A128A112130F5007630F400F40B3D
:100C4800232EF50B232E000003300A128A11B52437
:100C58000A128A114830F5006C30F400F40B322E79
:100C6800F50B322E000003300A128A11B5240A123D
:100C78008A1102300A128A11B5240A128A11023026
:100C88000A128A11B5240A128A1108300A128A1126
:100C9800B5240A128A1100300A128A11B5240A12E0
:100CA8008A110C300A128A11B5240A128A110030EE
:100CB8000A128A11B5240A128A1106300A128A11F8
:100CC800B5240800831603138801861483120313BE
:100CD800861483160313061183120313061583164D
:100CE80003130712871107118710831203130712C2
:100CF8008711071187100A128A110A260A128A1107
:100D08000A128A114C240A128A110530FB007B084A
:100D1800F40001300A128A11C0250A128A114E30D5
:100D28000A128A11ED240A128A113330FD00BB30F1
:100D3800FC00DF30FB00FB0B9F2EFC0B9F2EFD0BF6
:100D48009F2EA62E0A128A114C240A128A11F40127
:100D5800F40A01300A128A11C0250A128A111030C9
:100D68000A128A11ED240A128A11F401F40A0230D7
:100D78000A128A11C0250A128A113330FD00BB30CD
:100D8800FC00DF30FB00FB0BC72EFC0BC72EFD0B56
:100D9800C72ECE2E0A128A11D0240A128A11563072
:100DA800F3008030F4000A128A1183250A128A118E
:100DB8000A128A1176240A128A110A128A115724F1
:100DC8000A128A11FB00FC017B0883120313DD0061
:100DD8007C08DE0086181D2F061187100711871161
:100DE80007120A128A114C240A128A11F401F40A11
:100DF80001300A128A11C0250A128A1101300A121A
:100E08008A11ED240A128A11F401F40A02300A1236
:100E18008A11C0250A128A111A30FD005E30FC00C2
:100E28006E30FB00FB0B162FFC0B162FFD0B162F3D
:100E380000003030831203135D065E04031D492F42
:100E480087140711871507120A128A114C240A12EF
:100E58008A11F401F40A01300A128A11C0250A1213
:100E68008A111C300A128A11ED240A128A110630DE
:100E7800FD001330FC00AD30FB00FB0B412FFC0BD9
:100E8800412FFD0B412F482F9C2F31305D065E040A
:100E9800031D732F87100715871507120A128A1169
:100EA8004C240A128A11F401F40A01300A128A1138
:100EB800C0250A128A1128300A128A11ED240A1252
:100EC8008A110630FD001330FC00AD30FB00FB0B2F
:100ED8006B2FFC0B6B2FFD0B6B2F722F9C2F32305F
:100EE8005D065E04031DA32F8710071587110716DB
:100EF8000A128A114C240A128A11F401F40A0130E8
:100F08000A128A11C0250A128A113C300A128A1163
:100F1800ED240A128A110630FD001330FC00AD30B2
:100F2800FB00FB0B952FFC0B952FFD0B952F9C2F92
:100F3800831203138710071187110712E12E33302C
:100F48005D065E04031DE12E87140711871107163D
:100F58000A128A114C240A128A11F401F40A013087
:100F68000A128A11C0250A128A1145300A128A11FA
:100F7800ED240A128A110630FD001330FC00AD3052
:100F8800FB00FB0BC52FFC0BC52FFD0BC52FCC2F72
:100F98008312031387100711871107120330FD000E
:100FA8008A30FC005530FB00FB0BD82FFC0BD82FE8
:100FB800FD0BD82FDF2FE12E83135A30FD000530AB
:100FC800FE004930FF00203084000A128A1169248B
:100FD8000A128A11A0308400B4300A128A114424FB
:100FE8000A128A115A30840064300A128A11442481
:080FF80083010A128A11662E22
:02400E003A3F37
:00000001FF
