:060000000A128A11122809
:10000800FE00030EF6000408F7000A08F800831241
:1000180003137F08F9000A128A11E92B0A128A11C0
:1000280015288317B230FD000430FE009830FF0019
:10003800903084000A128A111C250A128A1183132F
:10004800E430FD000430FE00EF30FF00CE308400C5
:100058000A128A111C250A128A114830FD00043040
:10006800FE002730FF00203084000A128A111C2568
:100078000A128A118317B2308400D0300A128A110A
:1000880034250A128A118313A0308400CE300A1254
:100098008A1134250A128A114830840060300A1205
:1000A8008A113425F001F101F201F301F401830111
:1000B8000A128A115F288316031388018312031317
:1000C80088018B170B17831603138C1683120313DF
:1000D8008C120A128A1175240A128A110A128A11BC
:1000E8004A220A128A110A128A1129250A128A1129
:1000F800043083160313E400640883120313E50035
:10010800263083160313E500650883120313E600FF
:1001180001300A128A11E7210A128A113330831634
:100128000313E600BB30E500DF30E400E40B9A2857
:10013800E50B9A28E60B9A2883120313D4010A12B6
:100148008A1129250A128A1183120313E501E50A87
:10015800013083160313E400640883120313E600D6
:1001680001300A128A11E7210A128A110630831611
:100178000313E6001330E500AD30E400E40BC228B9
:10018800E50BC228E60BC228831203135C035D0447
:10019800031DA328DC01DD014F083206031D0729D2
:1001A80051083406031D072950083306031D072983
:1001B800C8010A128A1129250A128A118312031307
:1001C800E401E40A02300A128A1159230A128A1138
:1001D8003C300A128A114F240A128A1131300A124D
:1001E8008A1105250A128A11333083160313E60093
:1001F800BB30E500DF30E400E40B0029E50B002903
:10020800E60B0029A328831203134F082706031DB2
:100218003F2951082906031D3F2950082806031DB8
:100228003F290A128A1129250A128A1183120313F7
:10023800E401E40A02300A128A1159230A128A11C7
:1002480037300A128A114F240A128A1132300A12E0
:100258008A1105250A128A11333083160313E60022
:10026800BB30E500DF30E400E40B3829E50B382922
:10027800E60B3829A328831203134F0883160313A8
:100288006006031D81298312031351088316031383
:100298006206031D81298312031350088316031372
:1002A8006106031D81290A128A1129250A128A1159
:1002B80083120313E401E40A02300A128A11592353
:1002C8000A128A1146300A128A114F240A128A1118
:1002D80033300A128A1105250A128A11333083161F
:1002E8000313E600BB30E500DF30E400E40B7A29B5
:1002F800E50B7A29E60B7A29A328831203134F0802
:10030800831603135506031DC329831203135108CB
:10031800831603135706031DC329831203135008BA
:10032800831603135606031DC3290A128A112925A9
:100338000A128A1183120313E401E40A02300A1232
:100348008A1159230A128A1141300A128A114F243C
:100358000A128A1134300A128A1105250A128A11E2
:10036800333083160313E600BB30E500DF30E400CA
:10037800E40BBC29E50BBC29E60BBC29A3280A120F
:100388008A1129250A128A1183120313E401E40A47
:1003980001300A128A1159230A128A112F300A12BF
:1003A8008A114F240A128A11333083160313E60088
:1003B800BB30E500DF30E400E40BE029E50BE02981
:1003C800E60BE029A32883120313E9006903031D40
:1003D800FB2965087F3EE7006708EE006E08E70026
:1003E80004300310E70CFF3E031DF5290E2A0230E6
:1003F800831203136906031D252A6508BF3EE7001B
:100408006708EE006E08E70004300310E70CFF3EB3
:10041800031D092A6708E8006808EC006E080F3910
:10042800E7006708ED006C080A128A11BA240A125C
:100438008A11831203136D080A128A11BA240A1248
:100448008A1183120313EA01EB016A086607840024
:100458000A128A110A230A128A11003A031908009B
:100468006A08660784000A128A110A230A128A1186
:100478000A128A11AB230A128A110130831203135C
:10048800EA070318EB0A0030EB07292A00300A12A2
:100498008A11D7240A128A11823083120313E500C5
:1004A800DD30E400E40B562AE50B562A03300A1225
:1004B8008A11BA240A128A11213083120313E50023
:1004C8007530E400E40B662AE50B662A6B2A0330D4
:1004D8000A128A11BA240A128A11483083120313A5
:1004E800E5006B30E400E40B772AE50B772A7C2AD9
:1004F80003300A128A11BA240A128A1102300A1227
:100508008A11BA240A128A1102300A128A11BA24EC
:100518000A128A1108300A128A11BA240A128A1198
:1005280000300A128A11BA240A128A110C300A12EF
:100538008A11BA240A128A1100300A128A11BA24BE
:0E0548000A128A1106300A128A11BA2408001B
:10060000FF1B0A2B83137F1883170008840A031922
:10061000FF0A080003308A000408840A82070034B5
:10062000533468346F347734203479346F3475340C
:1006300072342034633461347234643400344C34A2
:100640006F3463346134743469346F346E343A34E3
:100650000A340D340034413454342B3443344D3493
:10066000473453343D342234003420345734453435
:100670004C3443344F344D344534003449346E34B3
:10068000763461346C34693464340034533449341E
:1006900056344134003452344134473455340034F4
:1006A0004B344134523455340034523441344A349A
:1006B000003483120313E7006703031D822B6408D1
:1006C0007F3EE5006508EA006A08E5000430031093
:1006D000E50CFF3E031D672B6508E6006608E80091
:1006E0006A080F39E5006508E90068080A128A11EE
:1006F000BA240A128A118312031369080A128A1192
:10070000BA2408000230831203136706031D080091
:100710006408BF3EE5006508EA006A08E5000430A9
:100720000310E50CFF3E031D902B6508E6006608EC
:10073000E8006A080F39E5006508E90068080A1250
:100740008A11BA240A128A118312031369080A1241
:100750008A11BA24080083120313E40064080F39D5
:10076000E1006108E2006408F039E1006108E3009B
:10077000881408116308E10004300310E10CFF3E07
:10078000031DBD2B61080A128A11D7240A128A118F
:10079000831203130814413083120313E100E10BA9
:1007A000CF2BD22B83120313081062080A128A116E
:1007B000D7240A128A1183120313081441308312BA
:1007C0000313E100E10BE22BE52B83120313081066
:1007D00008008C1EE92B1A08F5007508F400F201D8
:1007E0000C3072020318142C0A128A1142250A12C4
:1007F0008A11003A0319102C0A128A113C250A1298
:100800008A11F5007508F4007408F5007208483E76
:1008100084007508831380000130F5007508F20725
:100820000C307202031CF42B013083120313DC0022
:100830000030DD008C128C127908FF0078088A00E5
:1008400077088400760E8300FE0E7E0E0900303499
:10085000303431343334393434343734303435345B
:100860003634003430343034303431343534333489
:1008700031343434353439340034413454342B3445
:1008800043344D34473446343D34313400344134FC
:1008900054344534303400344134543400348312F9
:1008A0000313E700E501E6016508670784000A1203
:1008B0008A110A230A128A11003A031908006508EE
:1008C000670784000A128A110A230A128A110A127F
:1008D0008A11AB230A128A11013083120313E50730
:1008E0000318E60A0030E607542C83160313871713
:1008F00007132430980018159030831203139800C2
:100900008316031398168312031398178316031381
:10091000181283120313181683160313981618134C
:1009200083120313181381308316031399000800F0
:10093000413454342B34433453344D3450343D34E7
:10094000313437342C343134363437342C34303479
:100950002C3430340034413454342B344334533445
:10096000433453343D342234473453344D342234E9
:100970000D34003483120313E30088100811630858
:100980000A128A11D7240A128A1183120313081437
:100990001A3083120313E200F730E100E10BCE2C92
:1009A000E20BCE2CD32C8312031308100800831201
:1009B0000313E000601CDE2C0816DF2C0812E01C7C
:1009C000E32C8816E42C8812601DE82C0817E92C0B
:1009D0000813E01DED2C8817080088130800303438
:1009E00030343034313434343934353436343834C6
:1009F00032340034303430343034313435343034FF
:100A00003234313439343234003483120313E10088
:100A100083160313981C082D831203136108990091
:100A20000F3083120313E000E00B142D172D080084
:100A30007E088A007F08820018250A128A11800029
:100A4000840A04087D0603190034FF0A0319FE0A0C
:100A50001C2D00300A128A11BA240A128A110130A0
:100A60000A128A11BA24080064008001840A04066C
:100A7000031900340406352D831203138C1E3C2DFC
:100A80001A0808000030831203138C1A0130080082
:02400E003A3F37
:00000001FF
