:100000000A128A11DF2FFF1B0D2883137F18831715
:100010000008840A0319FF0A080000308A00040857
:10002000840A82070034013400340A340034643412
:100030000034E83403341034273453346F346C34D0
:1000400061347234203476346F346C347434203438
:100050003D34203425346434003442346134743403
:100060007434653472347934203476346F346C34BB
:1000700074343D3425346434003447347234693484
:100080006434203476346F346C34743420343D342A
:10009000203425346434003453346F346C34613488
:1000A00072342034633468346134723467346934B0
:1000B0006E34673400344734723469346434203425
:1000C0006334683461347234673469346E3467344D
:1000D0000034413454342B3443344D344734533496
:1000E0003D342234003453344F34433420343D34CF
:1000F0002034253464340034573445344C3443348C
:080100004F344D344534003446
:1002B60000300A128A119F210A128A1101300A128D
:1002C6008A119F210800FF308316031385008312CD
:1002D6000313850181309F008030831603139F002E
:1002E60008007E088A007F08820074210A128A119B
:1002F6008000840A04087D0603190034FF0A0319E6
:10030600FE0A7829F000701C8C2983120313081644
:100316008F29831203130812F01C93298816942937
:100326008812701D9829081799290813F01D9D2910
:100336008817080088130800F30083120313881037
:10034600081173080A128A1185210A128A1183126A
:10035600031308141A30F200F830F100F10BB1293A
:10036600F20BB1290000831203130810080083164C
:10037600031387170713243098001815903083123B
:100386000313980083160313981683120313981702
:1003960083160313181283120313181683160313F6
:1003A6009816813099000800F401F501701CE129C6
:1003B6007208F4070318F50A7308F50701300310ED
:1003C600F20DF30DFF3E031DE22901300310F10C7F
:1003D600F00CFF3E031DE92970087104031DD9299D
:1003E6007508F1007408F0000800413454342B34C9
:1003F60043345334433453343D3422344734533432
:100406004D3422340D34003468344834483448348A
:1004160048340034413454342B3443344D34473457
:1004260046343D3431340034413454344534303468
:100436000034413454340034413454342B3443347E
:100446004D34473453343D3422342B34393431342B
:10045600393437343434373431343534343433344E
:100466003634333422340034413454342B34433458
:1004760053344D3450343D34313437342C343134E4
:10048600363437342C3430342C3430340034F400E1
:1004960008307402031C522AF001F1010800C5302D
:1004A600F2007208831203139F057408F2000230EB
:1004B6000310F20DFF3E031D5B2A0310720DF300BD
:1004C60073089F040D30F300FB30F200F20B692A2B
:1004D600F30B692A6E2A831203131F151F19712A3B
:1004E6001E08F100831603131E08F000080083128D
:1004F6000313470848040319A92ACC01CC0AC81BD0
:10050600902A01300310C70DC80DFF3E031D852A32
:100516000130CB004B08CC07822A48084A02031D4B
:10052600962A47084902031C9E2A4708C90248081A
:10053600031CCA03CA0201300310C80CC70CFF3ED5
:10054600031D9F2A0130CC02031D902A4A08C800C9
:100556004908C7000800F40074080F39F100710853
:10056600F2007408F039F1007108F30083120313E6
:10057600881408117308F10004300310F10CFF3ED3
:10058600031DC02A71080A128A1185210A128A11CE
:100596008312031308144230F100F10BD02A000035
:1005A60083120313081072080A128A1185210A128F
:1005B6008A118312031308144230F100F10BE12A69
:1005C60000008312031308100800FB01FC017608E3
:1005D600770403191F2BFD01FD0AF71BFE2A0130C4
:1005E6000310F60DF70DFF3E031DF32A0130FA0046
:1005F6007A08FD07F02A01300310FB0DFC0DFF3EC3
:10060600031DFF2A77087902031D0B2B7608780253
:10061600031C142B7608F8027708031CF903F90269
:100626007B1401300310F70CF60CFF3E031D152B4F
:100636000130FD02031DFE2A7C08F7007B08F60048
:100646000800FA01FB017A087507F8007608F7003A
:100656000318F70AFA1BF7037708F90079088312DB
:100666000313FF00780884000A128A1103200A1275
:100676008A11003A031908007A087507F800760807
:10068600F7000318F70AFA1BF7037708F900790849
:1006960083120313FF00780884000A128A110320CC
:1006A6000A128A110A128A11AE220A128A1101301E
:1006B600FA070318FB0A0030FB07262BF70077031F
:1006C600031D862B74087F3EF5007508FA007A082C
:1006D600F50004300310F50CFF3E031D6D2B750865
:1006E600F6007608F8007A080F39F5007508F90063
:1006F60078080A128A119F210A128A1179080A12A9
:100706008A119F21080002307706031D080074082D
:10071600BF3EF5007508FA007A08F50004300310AC
:10072600F50CFF3E031D922B7508F6007608F800BF
:100736007A080F39F5007508F90078080A128A1147
:100746009F210A128A1179080A128A119F2108002C
:1007560000300A128A1185210A128A118230F500A8
:10076600DD30F400F40BB52BF50BB52BBA2B0330AB
:100776000A128A119F210A128A112130F500763059
:10078600F400F40BC42BF50BC42B000003300A1243
:100796008A119F210A128A114830F5006C30F40044
:1007A600F40BD32BF50BD32B000003300A128A115E
:1007B6009F210A128A1102300A128A119F210A12F7
:1007C6008A1102300A128A119F210A128A110830F0
:1007D6000A128A119F210A128A1100300A128A11FE
:1007E6009F210A128A110C300A128A119F210A12BD
:1007F6008A1100300A128A119F210A128A110630C4
:100806000A128A119F21080083120313D8004E3062
:10081600D0005008D3000130CD07FF304D078400CB
:100826000A128A110D200A128A11D0005008D90026
:1008360059080319D82C2530590603192E2C5908A6
:10084600D000580884005008831780000130D0007B
:100856005008D8070E2CD4010130CD07FF304D07C4
:1008660084000A128A110D200A128A11D900003A50
:100876000319D82C643A0319442C0D3A0319442C55
:100886000E2C5308840083130008D600840A00083F
:10089600D7000230D0005008D307D71F5B2C033097
:1008A600D0005008D404D609D709D60A0319D70AA6
:1008B600D901D90A053059060319822C5908D000E6
:1008C6005007013E84000A128A110D200A128A116D
:1008D600D1000A128A110D200A128A11D20052087A
:1008E6005702031D782C51085602031C822C013036
:1008F600D0005008D90705305906031D612C54084D
:1009060003390319912C2D30D00058088400500863
:10091600831780000130D0005008D8075908D0004E
:100926005008D500FF30D0005008D507550A0319E6
:100936000E2C0A30C7000030C8005508D0005007FA
:10094600013E84000A128A110D200A128A11F6004D
:100956000A128A110D200A128A11F7005708F900A7
:100966005608F8000A128A11E8220A128A11770834
:1009760083120313CA007608C9000A128A117A2262
:100986000A128A11831203134708303ED100510818
:10099600D9005908D00058088400500883178000F1
:1009A6000130D0005008D807952C580884008317CA
:1009B6008001080083160317E001E101E201E3016B
:1009C600FF308316031385008312031385018316F4
:1009D6000313880186018312031386010A128A1102
:1009E60066210A128A110A128A11BA210A128A117A
:1009F6000A128A11AB230A128A110A128A115B2182
:100A06000A128A11053083120313DA005A08F40019
:100A160001300A128A1161230A128A116A30F5001E
:100A26008030F6000A128A1124230A128A11333002
:100A360083120313DC00BB30DB00DF30DA00DA0B95
:100A4600222DDB0B222DDC0B222DB22D003067026E
:100A56000330031966020318C32F00306B020330FC
:100A660003196A020318C32F831203138612061191
:100A76008614B22D00306702063003196602031C85
:100A8600CC2F00306B02063003196A02031CCC2FF0
:100A96008312031386168611061286100611B22DCE
:100AA6008312031386128614061500308316031765
:100AB6006B02073003196A02031C8A2D8312031383
:100AC600861506120A128A115B210A128A11F4018E
:100AD600F40A01300A128A1161230A128A113A3085
:100AE600F5008030F6000A128A1124230A128A11B0
:100AF600333083120313DC00BB30DB00DF30DA0057
:100B0600DA0B832DDB0B832DDC0B832DB22D8312A9
:100B16000313861106160A128A115B210A128A111C
:100B2600F401F40A01300A128A1161230A128A11A9
:100B36004930F5008030F6000A128A1124230A1281
:100B46008A11333083120313DC00BB30DB00DF3045
:100B5600DA00DA0BAC2DDB0BAC2DDC0BAC2D063042
:100B660083120313DC001330DB00AD30DA00DA0B3E
:100B7600BA2DDB0BBA2DDC0BBA2D00300A128A1106
:100B86004A220A128A11710883160317E9007008AF
:100B9600E8008A30F6000230F7006908F1006808BC
:100BA600F0000C30F2000030F3000A128A11D7214F
:100BB6000A128A117108F9007008F8000A128A11DF
:100BC600E8220A128A11770883160317E9007608C5
:100BD600E8001B3083120313DA005A08CD0083168F
:100BE6000317690883120313CF00831603176808D7
:100BF60083120313CE0090300A128A1107240A12B8
:100C06008A11063083120313DC001330DB00AD308B
:100C1600DA00DA0B0C2EDB0B0C2EDC0B0C2E013063
:100C26000A128A114A220A128A11710883160317B8
:100C3600EB007008EA00F330F6000230F7006B08AC
:100C4600F1006A08F0000C30F2000030F3000A12DE
:100C56008A11D7210A128A117108F9007008F80062
:100C66000A128A11E8220A128A11770883160317D4
:100C7600EB007608EA000B3083120313DA005A08F9
:100C8600CD00831603176B0883120313CF00831658
:100C960003176A0883120313CE00A4300A128A11BE
:100CA60007240A128A11063083120313DC0013305C
:100CB600DB00AD30DA00DA0B5E2EDB0B5E2EDC0BD2
:100CC6005E2E02300A128A114A220A128A1171080D
:100CD60083160317E7007008E600F330F6000230CB
:100CE600F7006708F1006608F0000C30F2000030EB
:100CF600F3000A128A11D7210A128A117108F90023
:100D06007008F8000A128A11E8220A128A11770876
:100D160083160317E7007608E6002B3083120313C9
:100D2600DA005A08CD0083160317670883120313E7
:100D3600CF0083160317660883120313CE00B8305C
:100D46000A128A1107240A128A1106308312031323
:100D5600DC001330DB00AD30DA00DA0BB02EDB0B33
:100D6600B02EDC0BB02E03300A128A114A220A1268
:100D76008A11710883160317E5007008E400F33042
:100D8600F6000230F7006508F1006408F0000C3048
:100D9600F2000030F3000A128A11D7210A128A11D2
:100DA6007108F9007008F8000A128A11E8220A127E
:100DB6008A11770883160317E5007608E400613088
:100DC60083120313DA005A08CD0083160317650849
:100DD60083120313CF0083160317640883120313C9
:100DE600CE00CC300A128A1107240A128A11063064
:100DF60083120313DC001330DB00AD30DA00DA0BAC
:100E0600022FDB0B022FDC0B022F0A128A115B2149
:100E16000A128A11F401F40A01300A128A116123B6
:100E26000A128A119030F5000130F6000A128A1172
:100E360024230A128A11103083120313DA005A0887
:100E4600F40001300A128A1161230A128A115630FF
:100E56000A128A11AE220A128A11F401F40A023029
:100E66000A128A1161230A128A11A430F500013090
:100E7600F6000A128A1124230A128A1110308312EC
:100E86000313DA005A08F40002300A128A116123A9
:100E96000A128A1156300A128A11AE220A128A11D1
:100EA600333083120313DC00BB30DB00DF30DA00A3
:100EB600DA0B5B2FDB0B5B2FDC0B5B2F0A128A1125
:100EC6005B210A128A11F401F40A01300A128A110E
:100ED60061230A128A11CC30F5000130F6000A129D
:100EE6008A1124230A128A11103083120313DA009E
:100EF6005A08F40001300A128A1161230A128A1173
:100F060056300A128A11AE220A128A11F401F40A24
:100F160002300A128A1161230A128A11B830F500CA
:100F26000130F6000A128A1124230A128A1110309F
:100F360083120313DA005A08F40002300A128A11E7
:100F460061230A128A1156300A128A11AE220A1237
:100F56008A11333083120313DC00BB30DB00DF3031
:100F6600DA00DA0BB42FDB0BB42FDC0BB42F003016
:100F7600831603176902033003196802031C292D1F
:100F86000030831603176902063003196802031836
:100F96003D2D831203138612003083160317690250
:100FA600023003196802031C532D831203138610A3
:100FB600061186110612B22D8313CB30FD000230C6
:100FC600FE001F30FF00A03084000A128A1178212B
:100FD6000A128A114730FD000130FE00F830FF008A
:100FE600203084000A128A117821DD01DE01DF013A
:0A0FF600E00183010A128A11DD2CCC
:02400E003A3F37
:00000001FF
