:060000000A128A11122809
:10000800FE00030E83120313DA000408DB000A085B
:10001800DC007F08DD000A128A118D2A0A128A1173
:1000280015288317DA30FD000E30FE004130FF003E
:10003800B83084000A128A15DD240A128A11283081
:10004800FD000D30FE004030FF00103084000A1221
:100058008A15DD240A128A118313EA30FD000C3058
:10006800FE00FD30FF00D53084000A128A15DD2419
:100078000A128A114130FD000D30FE00FE30FF00EB
:10008800203084000A128A15DD240A128A11831787
:1000980090308400B8300A128A15C6240A128A11D0
:1000A8008313A0308400D5300A128A15C6240A1298
:1000B8008A114130840054300A128A15C624FD0181
:1000C80083010A128A116828831603138801831290
:1000D800031388018316031387118710071107106C
:1000E8008312031387110711871007108316031350
:1000F8008617861F832883160313061786288316F8
:1001080003130613061F8C288316031386168F28DD
:10011800831603138612861E952883160313061664
:1001280098288316031306128312031386130613E3
:1001380086120612831603138611061183120313FF
:10014800861106118B170B178316031301138C16D0
:10015800831203138C120B168B100A128A11902724
:100168000A128A110A128A15C4250A128A110A1259
:100178008A11F1270A128A1183120313E201E20A93
:1001880001300A128A11C3260A128A115A300A1239
:100198008A1563260A128A11333083160317DC0086
:1001A800BB30DB00DF30DA00DA0BD828DB0BD828CD
:1001B800DC0BD8280A128A112D270A128A110A1272
:1001C8008A15C4250A128A110A128A11F1270A12FD
:1001D8008A11043083160317DA005A0883120313AE
:1001E800E20001300A128A11C3260A128A11CB30A2
:1001F8000A128A1563260A128A11333083160317E6
:10020800DC00BB30DB00DF30DA00DA0B0929DB0B5E
:100218000929DC0B092983160313AC010A128A1178
:10022800F1270A128A1183120313E201E20A01304C
:100238000A128A11C3260A128A1178300A128A15FC
:1002480063260A128A110D3083160317DC00AF30BB
:10025800DB00B530DA00DA0B2F29DB0B2F29DC0B9A
:100268002F29362983120313470848040319122932
:100278000A128A11F1270A128A1183120313E20162
:10028800E20A01300A128A11C3260A128A11693059
:100298000A128A1563260A128A1133308316031745
:1002A800DC00BB30DB00DF30DA00DA0B5929DB0B6E
:1002B8005929DC0B592983120313C501C6010030E3
:1002C8008312031346020430031945020318122946
:1002D8000A128A11A9250A128A1183160317DA004D
:1002E8005A0883120313CF000D3083160317DC005E
:1002F800AF30DB00B530DA00DA0B8029DB0B802960
:10030800DC0B80298729831203134F0883160317F0
:10031800DA00831203134508C13E840083160317CD
:100328005A0883138000013083120313C50703188A
:10033800C60A0030C607450883160317DA005A08AC
:1003480083120313E20002300A128A11C3260A122A
:100358008A11831203134F080A128A1527270A12D3
:100368008A11063083160317DC001330DB00AD302A
:10037800DA00DA0BBD29DB0BBD29DC0BBD29043003
:100388008312031345064604031D632983160313CA
:10039800C501CB3083160317DA005A0883120313FA
:1003A800DE00C1300A128A1589260A128A118312C0
:1003B80003135F08C4005E08C30043084404031D18
:1003C800572AC701C8010A128A11F1270A128A118D
:1003D80083120313E201E20A01300A128A11C326CA
:1003E8000A128A1187300A128A1563260A128A119C
:1003F80083120313E201E20A02300A128A11C326A9
:100408000A128A1196300A128A1563260A128A116C
:10041800333083160317DC00BB30DB00DF30DA0033
:10042800DA0B142ADB0B142ADC0B142A83120313AD
:1004380006158611123083160317DC00C230DB0064
:100448006530DA00DA0B262ADB0B262ADC0B262A93
:100458002D2A83120313061186117F308316031782
:10046800DC00D430DB003130DA00DA0B392ADB0B60
:10047800392ADC0B392A8312031306118615123028
:1004880083160317DC00C230DB006530DA00DA0BB4
:100498004B2ADB0B4B2ADC0B4B2A522A8312031301
:1004A800061186111229C701C8010A128A11F127FB
:1004B8000A128A1183120313E201E20A01300A12B6
:1004C8008A11C3260A128A113A300A128A1563263B
:1004D8000A128A1183120313E201E20A02300A1295
:1004E8008A11C3260A128A11C2300A128A15632693
:1004F8000A128A11333083160317DC00BB30DB0085
:10050800DF30DA00DA0B862ADB0B862ADC0B862A38
:1005180012290B1A8B1CBD2A8B100A128A15CE249D
:100528000A128A11F401F40A01300A128A156527A1
:100538000A128A1130300A128A151F260A128A11E5
:100548000130FA008030FB00A2300A128A11E3243D
:100558000A128A11333083120313D900BB30D80032
:10056800DF30D700D70BB62AD80BB62AD90BB62A54
:10057800ED2B831203138C1EBD2A1A08D7005708C7
:10058800FD0024307D06031DEA2BC501C60100309D
:1005980046020C30031945020318FB2A0A128A1571
:1005A800C0240A128A11003A0319F22A0A128A117F
:1005B800FA230A128A1183120313D7005708FD0081
:1005C8007D08D7004508A03E8400570883138000A3
:1005D8000130C5070318C60A0030C6070030831269
:1005E800031346020C3003194502031CD22A8C124D
:1005F800831603135D082806031DC92B5E08290608
:10060800031DC92B0A128A15CE240A128A11F40175
:10061800F40A01300A128A1565270A128A114B302A
:100628000A128A151F260A128A11333083120313FD
:10063800D900BB30D800DF30D700D70B212BD80B1F
:10064800212BD90B212B8312031349084A04031DBC
:100658005E2B0130C9070318CA0A0030CA070130E7
:10066800C7070318C80A0030C8073430FA0000303A
:10067800FB00A2300A128A11E3240A128A113430CC
:1006880083120313D7005708F000CB300A128A15DB
:1006980058250A128A11063083120313D900133021
:1006A800D800AD30D700D70B572BD80B572BD90B09
:1006B800572BEA2B8312031349034A04031D952B76
:1006C8000130C7070318C80A0030C8070130C90736
:1006D8000318CA0A0030CA072F30FA000030FB009E
:1006E800A2300A128A11E3240A128A112F308312C7
:1006F8000313D7005708F000CB300A128A15582583
:100708000A128A11063083120313D9001330D80055
:10071800AD30D700D70B8E2BD80B8E2BD90B8E2B49
:10072800EA2B02308312031349064A04031DEA2BFD
:100738000130C7070318C80A0030C807C901CA0131
:100748002A30FA000030FB00A2300A128A11E32492
:100758000A128A112A3083120313D7005708F000AF
:10076800CB300A128A1558250A128A1106308312CC
:100778000313D9001330D800AD30D700D70BC22BE4
:10078800D80BC22BD90BC22BEA2B0A128A15CE24FE
:100798000A128A11F401F40A01300A128A1565272F
:1007A8000A128A11AD300A128A151F260A128A11F6
:1007B800333083120313D900BB30D800DF30D700A1
:1007C800D70BE42BD80BE42BD90BE42B83120313A0
:1007D8008C12831203135D08FF005C088A005B0813
:1007E80084005A0E8300FE0E7E0E09008312031346
:1007F8008C1EFA2B1A080800FF1B0A2C83137F187B
:1008080083170008840A0319FF0A080004308A00C5
:100818000408840A820700344C344F3443344B3480
:1008280045345234203453344534433455345234E7
:10083800493454345934203455344E3449345434BA
:100848003A340A340D3443346134753474346934B9
:100858006F346E343A3453346534633475347234D7
:10086800693474347934203461346C3465347234C6
:1008780074340A340D3445346D3465347234673455
:1008880065346E34633479340034503461342E3432
:1008980077346F347234643420346D34693473348B
:1008A8006D34613474346334683400344F345434F0
:1008B80050342034533465346E34643469346E34BF
:1008C80067342E342E342E34003450346C3465346E
:1008D8006134733465342034773461346934743462
:1008E8002E342E342E34003445346E34743465344A
:1008F8007234203479346F347534723420344F3480
:10090800543450340034533468346F3477342034DA
:1009180079346F347534723420346334613472340A
:1009280064340034503461347334733477346F343E
:100938007234643420344D3461347434633468342C
:10094800003455346E346C346F3463346B3465342E
:1009580064342E342E342E3400343934343439345B
:100968003634393437343234313433343034003473
:10097800573472346F346E346734203475347334BA
:10098800653472340034413454342B3443344D3498
:10099800473453343D342234003453346F34723482
:1009A800723479342E342E342E34003420345734B3
:1009B80045344C3443344F344D3445340034FC0012
:1009C8000A128A15A7250A128A113E30F300003050
:1009D800F4000A128A15EA260A128A110D300A1240
:1009E8008A15EA240A128A111A3083120313D600D0
:1009F8005E30D5006D30D400D40B002DD50B002D02
:100A0800D60B002D072D3930F3000030F4000A1200
:100A18008A15EA260A128A110D300A128A15EA2462
:100A28000A128A111A3083120313D6005E30D500D9
:100A38006D30D400D40B1E2DD50B1E2DD60B1E2DBC
:100A4800252DE030F3000030F4000A128A15EA265A
:100A58000A128A110D300A128A15EA240A128A111A
:100A68001A3083120313D6005E30D5006D30D400DF
:100A7800D40B3C2DD50B3C2DD60B3C2D432DB8303B
:100A8800F3008030F4000A128A15EA260A128A1145
:100A98007C08F3000030031D8030F4000A128A1528
:100AA800EA260A128A11C030F3008030F4000A12D4
:100AB8008A15EA260A128A110D300A128A15EA24C2
:100AC8000A128A111A3083120313D6005E30D50039
:100AD8006D30D400D40B6E2DD50B6E2DD60B6E2D2C
:100AE800752D7A08F3007B08F4000A128A15EA26A5
:100AF8000A128A110D300A128A15EA240A128A117A
:100B08001A3083120313D6005E30D5006D30D4003E
:100B1800D40B8C2DD50B8C2DD60B8C2D932D1A30F8
:100B28000A128A15EA240A128A111A308312031348
:100B3800D6005E30D5006D30D400D40BA12DD50B76
:100B4800A12DD60BA12DA82D080083160313EA01A9
:100B5800EB01EA01EB0100306B02043003196A0271
:100B68000318AD2D6A086B04031DBC2D0130D52D6B
:100B7800831603136A036B04031DC42D0230D52D9D
:100B88000230831603136A066B04031DCD2D04304F
:100B9800D52D0330831603136A066B04031DD82D65
:100BA80008308312031387008312061EEE2D831666
:100BB80003136B0883120313DF00831603136A08F9
:100BC80083120313DE000030E000E1000A128A11EC
:100BD80047260800861E042E831603136B0883120B
:100BE8000313DF00831603136A0883120313DE005E
:100BF8000130E0000030E1000A128A11472608009F
:100C0800061F1A2E831603136B0883120313DF00C3
:100C1800831603136A0883120313DE000230E00010
:100C28000030E1000A128A1147260800861F302E7C
:100C3800831603136B0883120313DF008316031351
:100C48006A0883120313DE000330E0000030E1007D
:100C58000A128A1147260800073083120313E4009A
:100C68005830E3005930E200E20B382EE30B382EFF
:100C7800E40B382E013083160313EA070318EB0A36
:100C88000030EB07AF2D8312031360086104031DC6
:100C9800672E03305E065F04031D542E2A300800B9
:100CA80002305E065F04031D5B2E373008005E03CA
:100CB8005F04031D612E343008005E085F04031DC5
:100CC80008003130080060036104031D852E0330DD
:100CD8005E065F04031D722E3030080002305E0687
:100CE8005F04031D792E383008005E035F04031D7E
:100CF8007F2E353008005E085F04031D080032307F
:100D08000800023060066104031DA42E03305E064D
:100D18005F04031D912E2330080002305E065F0435
:100D2800031D982E393008005E035F04031D9E2EB4
:100D3800363008005E085F04031D080033300800E1
:100D4800033060066104031D080003305E065F047B
:100D5800031DB02E4430080002305E065F04031DF8
:100D6800B72E433008005E035F04031DBD2E4230DA
:100D780008005E085F04031D080041300800831660
:100D88000313EA006A03031DF82E83120313620893
:100D98007F3EE300630883160313ED006D0883129A
:100DA8000313E30004300310E30CFF3E031DD72EAA
:100DB8006308E400640883160313EB006D080F3919
:100DC80083120313E300630883160313EC006B0814
:100DD8000A128A15E1250A128A11831603136C0870
:100DE8000A128A15E12508000230831603136A06E1
:100DF800031D0800831203136208BF3EE300630863
:100E080083160313ED006D0883120313E300043007
:100E18000310E30CFF3E031D0C2F6308E400640875
:100E280083160313EB006D080F3983120313E300D5
:100E3800630883160313EC006B080A128A15E12570
:100E48000A128A11831603136C080A128A15E125FF
:100E580008000A128A15C4250A128A113E30831224
:100E68000313E1000030E2000A128A15AF270A12C4
:100E78008A110D300A128A1512250A128A110330B6
:100E880083160313EE008A30ED005530EC00EC0BAE
:100E98004B2FED0B4B2FEE0B4B2F393083120313D7
:100EA800E1000030E2000A128A15AF270A128A11FF
:100EB8000D300A128A1512250A128A110330831678
:100EC8000313EE008A30ED005530EC00EC0B6A2F6E
:100ED800ED0B6A2FEE0B6A2FE03083120313E1004B
:100EE8000030E2000A128A15AF270A128A110D3063
:100EF8000A128A1512250A128A110330831603135F
:100F0800EE008A30ED005530EC00EC0B892FED0B2C
:100F1800892FEE0B892F080000300A128A15282520
:100F28000A128A11823083120313E300DD30E200D3
:100F3800E20B9C2FE30B9C2F03300A128A15E12544
:100F48000A128A11213083120313E3007530E2007C
:100F5800E20BAC2FE30BAC2FB12F03300A128A152A
:100F6800E1250A128A11483083120313E3006B301B
:100F7800E200E20BBD2FE30BBD2FC22F03300A1294
:100F88008A15E1250A128A1102300A128A15E1250A
:100F98000A128A1102300A128A15E1250A128A11E8
:100FA80008300A128A15E1250A128A1100300A123D
:100FB8008A15E1250A128A110C300A128A15E125D0
:100FC8000A128A1100300A128A15E1250A128A11BA
:100FD80006300A128A15E125080000300A128A151F
:100FE800E1250A128A1101300A128A15E125080042
:101980000030831203138C1A0130080064008001B8
:10199000840A0406031900340406C72C00300A1216
:1019A0008A158C250A128A1501300A128A158C258F
:1019B00008007E088A007F088200D9240A128A154E
:1019C0008000840A04087D0603190034FF0A031905
:1019D000FE0ADD2CF20083160313981CEB2C720810
:1019E0008312031399000430F1003D30F000F00B36
:1019F000F72CF10BF72CFC2C080030343034303449
:101A000031343434383435343334383439340034C0
:101A1000413454342B3443344D34473446343D340C
:101A20003134003483120313E00083160313981C2F
:101A3000152D8312031360089900043083120313D9
:101A4000DF003D30DE00DE0B232DDF0B232D0800F1
:101A500083120313DE005E1C2F2D0816302D081292
:101A6000DE1C342D8816352D88125E1D392D081781
:101A70003A2D0813DE1D3E2D881708008813080034
:101A8000413454342B3443344D34473453343D348F
:101A900022342B3439343134393437343434373414
:101AA000313435343434333436343334223400343E
:101AB000F3007308F1007108F200700884008313CA
:101AC0000008F10072088400710880000008031902
:101AD00008000130F1007108F2070130F1007108CF
:101AE000F0075D2DF000701C792D8312031308168A
:101AF0007C2D831203130812F01C802D8816812D73
:101B00008812701D852D0817862D0813F01D8A2D4B
:101B10008817080088130800F30083120313881045
:101B2000081173080A128A1572250A128A1583127F
:101B3000031308141A30F200F830F100F10B9E2D57
:101B4000F20B9E2D00008312031308100800831669
:101B50000313871707132430980018159030831249
:101B60000313980083160313981683120313981710
:101B70008316031318128312031318168316031304
:101B800098168130990008008316031387170713EE
:101B90002430980018159030831203139800831690
:101BA000031398168312031398178316031318123E
:101BB00083120313181683160313981681309900A5
:101BC000080083120313E1008810081161080A124B
:101BD0008A1528250A128A158312031308141A304D
:101BE00083120313E000F730DF00DF0BF52DE00B6D
:101BF000F52DFA2D831203130810080068344834B9
:101C000048344834483400340A3400340A34003448
:101C100031344134333434340034343435343834AA
:101C200042340034413431343234333400344134BA
:101C30005434453430340034413454340034F500E5
:101C4000F601F7017608750784000A128A110A2442
:101C50000A128A15003A03190800760875078400ED
:101C60000A128A110A240A128A150A128A15B02643
:101C70000A128A150130F6070318F70A0030F70731
:101C8000222E413454342B34433453344D345034A5
:101C90003D34313437342C343134363437342C3409
:101CA00030342C3430340034413454342B34433405
:101CB0005334433453343D342234473453344D3455
:101CC00022340D34003483120313E500E301E401F0
:101CD0006308650784000A128A110A240A128A1509
:101CE000003A031908006308650784000A128A1184
:101CF0000A240A128A150A128A1527270A128A1537
:101D0000013083120313E3070318E40A0030E407E9
:101D1000682E83120313E300952E0130E000600863
:101D2000E3070130E0006008DE07630884008313E6
:101D30000008E0005E0884000003FF3A6007E1004D
:101D40006108E2006208031DAA2E630884000008EF
:101D5000031D8D2E6208DE00DF01DE1BDF0308009D
:101D6000F40074080F39F1007108F2007408F039BA
:101D7000F1007108F300831203138814081173082B
:101D8000F10004300310F10CFF3E031DC22E710858
:101D90000A128A1572250A128A158312031308146F
:101DA0004230F100F10BD22E000083120313081011
:101DB00072080A128A1572250A128A1583120313F1
:101DC00008144230F100F10BE32E000083120313DC
:101DD00008100800F801F90178087307F600740884
:101DE000F5000318F50AF81BF5037508F7007708E6
:101DF00083120313FF00760884000A128A1100245C
:101E00000A128A15003A0319080078087307F600C9
:101E10007408F5000318F50AF81BF5037508F700B8
:101E2000770883120313FF00760884000A128A11D0
:101E300000240A128A150A128A15EA240A128A153F
:101E40000130F8070318F90A0030F907EC2E831265
:101E50000313E20062080F39DF005F08E000620848
:101E6000F039DF005F08E100881408116108DF0025
:101E700004300310DF0CFF3E031D392F5F080A12E8
:101E80008A1528250A128A15831203130814413073
:101E900083120313DF00DF0B4B2F4E2F831203132C
:101EA000081060080A128A1528250A128A1583125A
:101EB00003130814413083120313DF00DF0B5E2F7E
:101EC000612F8312031308100800F7007703031D26
:101ED0008A2F74087F3EF5007508FA007A08F5002D
:101EE00004300310F50CFF3E031D712F7508F6003A
:101EF0007608F8007A080F39F5007508F9007808B7
:101F00000A128A158C250A128A1579080A128A156E
:101F10008C25080002307706031D08007408BF3EB8
:101F2000F5007508FA007A08F50004300310F50C86
:101F3000FF3E031D962F7508F6007608F8007A0814
:101F40000F39F5007508F90078080A128A158C25F2
:101F50000A128A1579080A128A158C250800831638
:101F60000313EA01EB016A08831203136107E4001B
:101F70006208E3000318E30A83160313EA1FC32F62
:101F800083120313E303831203136308E500650858
:101F9000FF00640884000A128A1100240A128A15BC
:101FA000003A03190800831603136A088312031307
:101FB0006107E4006208E3000318E30A83160313D1
:101FC000EA1FE52F83120313E3038312031363084D
:101FD000E5006508FF00640884000A128A110024E5
:101FE0000A128A150A128A1512250A128A15013058
:101FF00083160313EA070318EB0A0030EB07B32F2D
:02400E003A3F37
:00000001FF
