:060000000A128A11B02F64
:1000080000300A128A15D6260A128A1101300A12FD
:100018008A15D6260800413454342B3443344D34E1
:10002800473446343D343134003441345434453453
:10003800303400344F344B3400344F344B340034B4
:10004800353435340034413454342B34533441344A
:100058005034423452343D3432342C343134003448
:100068005234413447345534003441345434003424
:10007800303430343034303431343534333431344E
:100088003434353439340034413454342B34533413
:1000980041345034423452343D3431342C343134C8
:1000A800003430343034303430343134353433344F
:1000B80031343434353439340034413454342B3405
:1000C800483454345434503452344534413444342C
:1000D8000034413454342B34483454345434503478
:1000E80049344E34493454340034F2018312031332
:1000F80086197A28A330F000F00B80285130F000E0
:10010800F00B84280000F301083073020318A928B3
:1001180083120313861D9D280130F000730A962868
:100128000310F00DFF3E031D94287008F1007108BC
:10013800F207A330F000F00B9F280130F0007008A0
:10014800F30708307302031C8C2883120313861DDF
:10015800B4285130F000F00BAF28000072080800F6
:100168005130F000F00BB628000000300800F20112
:10017800831203138618BC28A330F000F00BC228A2
:100188005130F000F00BC6280000F301083073026C
:100198000318EB2883120313861CDF280130F000B4
:1001A800730AD8280310F00DFF3E031DD6287008E7
:1001B800F1007108F207A330F000F00BE1280130DC
:1001C800F0007008F30708307302031CCE2883126E
:1001D8000313861CF6285130F000F00BF1280000BC
:1001E800720808005130F000F00BF82800000030C9
:1001F8000800F7007703031D222974087F3EF500E5
:100208007508FA007A08F50004300310F50CFF3E73
:10021800031D09297508F6007608F8007A080F39D1
:10022800F5007508F90078080A128A15D6260A1208
:100238008A1179080A128A15D6260800023077062C
:10024800031D08007408BF3EF5007508FA007A0817
:10025800F50004300310F50CFF3E031D2E29750828
:10026800F6007608F8007A080F39F5007508F900E5
:1002780078080A128A15D6260A128A1179080A12EB
:100288008A15D626080000300A128A15BC260A12DA
:100298008A118230F500DD30F400F40B5129F50B9A
:1002A8005129562903300A128A15D6260A128A11AC
:1002B8002130F5007630F400F40B6029F50B602945
:1002C800000003300A128A15D6260A128A1148300D
:1002D800F5006C30F400F40B6F29F50B6F29000062
:1002E80003300A128A15D6260A128A1102300A1217
:1002F8008A15D6260A128A1102300A128A15D626BB
:100308000A128A1108300A128A15D6260A128A1188
:1003180000300A128A15D6260A128A110C300A12DF
:100328008A15D6260A128A1100300A128A15D6268C
:100338000A128A1106300A128A15D62608003034A5
:10034800303430343034313435343034323431347C
:100358003934323400343034303430343134333496
:100368003934343437343034353436340034303476
:10037800303430343034313434343934353436343C
:10038800383432340034303430343034303431346A
:100398003534303432343134393432340034303452
:1003A800303430343134333439343434373430340D
:1003B8003534363400343034303430343034313439
:1003C8003434393435343634383432340034303413
:1003D80030343034303431343534303432343134EC
:1003E8003934323400343034303430343134333406
:1003F80039343434373430343534363400348312B5
:100408000313CD004D03031D172A75087F3EF8001E
:100418007808D2005208F80004300310F80CFF3EA8
:10042800031D112A2A2A0230831203134D06031DC5
:10043800412A7508BF3EF8007808D2005208F80033
:1004480004300310F80CFF3E031D252A7808F90034
:100458007908D00052080F39F8007808D100500800
:100468000A128A15D6260A128A1183120313510812
:100478000A128A15D6260A128A1183120313CE018C
:10048800CF014E087607F9007708F8000318F80A34
:10049800CE1BF8037808FA007A0883120313FF00CA
:1004A800790884000A128A1568210A128A11003A0A
:1004B800031908004E087607F9007708F8000318B2
:1004C800F80ACE1BF8037808FA007A088312031397
:1004D800FF00790884000A128A1568210A128A1115
:1004E8000A128A1589270A128A1101308312031306
:1004F800CE070318CF0A0030CF07452A0A128A15FB
:1005080084260A128A118312031369086A04031DD8
:1005180008000A128A1179200A128A11F400740854
:1005280083120313EB0024306B06031D8D2A0A1275
:100538008A1179200A128A11F400740883120313AD
:10054800EB0047306B06031D9B2A0A128A1179209B
:100558000A128A11F400740883120313EB00503056
:100568006B06031DA92A0A128A1179200A128A1118
:10057800F400740883120313EB0047306B06031D65
:10058800B72A0A128A1179200A128A11F40074080B
:1005980083120313EB004C306B06031DC52A0A12A5
:1005A8008A1179200A128A11F4007408831203133D
:1005B800EB004C306B06031DD32A0A128A117920EE
:1005C8000A128A11F400740883120313EB002C300A
:1005D8006B06031DE12A0A128A1179200A128A1170
:1005E800F400740883120313EB000130E9000030B3
:1005F800EA00E701E8016808803AFF0080307F02DE
:10060800031D082B1930670203182D2B0A128A11B3
:1006180079200A128A11F400740883120313EB007C
:100628006B08F40067083D3E840074088317800057
:100638000130E7070318E80A0030E8076808803A3D
:10064800FF0080307F02031D2B2B19306702031C2B
:100658000A2B83120317D401080083160313880199
:100668008312031388010A128A1514270A128A11A1
:100678000A128A158C260A128A110A128A158426E9
:100688000A128A110A128A1147210A128A110A12B9
:100698008A1104200A128A110A128A1163240A1282
:1006A8008A110A128A1104200A128A11043083124C
:1006B8000313E3006308F5004530F6008930F700BE
:1006C80001300A128A1103220A128A113330831266
:1006D8000313E500BB30E400DF30E300E30B722BCB
:1006E800E40B722BE50B722B83160313E901FF2B26
:1006F8000A128A1104200A128A11F401F40A01303C
:100708000A128A11FD200A128A111730F500893061
:10071800F6000A128A15C3270A128A110A128A11C8
:1007280082220A128A11453083120313E3006308F8
:10073800F4003D30E4006408F500B9300A128A116B
:1007480009260A128A11333083120313E500BB30DD
:10075800E400DF30E300E30BAF2BE40BAF2BE50B3A
:10076800AF2BFF2B0A128A1104200A128A11F401F6
:10077800F40A01300A128A11FD200A128A110B307C
:10078800F5008930F6000A128A15C3270A128A1161
:10079800333083120313E500BB30E400DF30E3009D
:1007A800E30BD42BE40BD42BE50BD42BFF2B0A1231
:1007B8008A1104200A128A11F401F40A01300A127B
:1007C8008A11FD200A128A113A30F5008930F600A4
:1007D8000A128A15C3270A128A11333083120313A7
:1007E800E500BB30E400DF30E300E30BF92BE40B5A
:1007F800F92BE50BF92B0A128A1104200A128A1127
:10080800F501F50A2F30F6008930F70001300A1299
:100818008A1103220A128A11063083120313E50093
:100828001330E400AD30E300E30B182CE40B182C74
:10083800E50B182C0A128A11BB200A128A1183129E
:100848000313E3006308E6003130660603197C2BC6
:1008580032308312031366060319B62B3330831222
:10086800031366060319DB2B343083120313660661
:10087800031DFF2B0A128A1104200A128A11F4019F
:10088800F40A01300A128A11FD200A128A11233053
:10089800F5008930F6000A128A15C3270A128A1150
:1008A800333083120313E500BB30E400DF30E3008C
:1008B800E30B5C2CE40B5C2CE50B5C2CFF2B83120C
:1008C8000313DE01DF013208DB003308DC003408E3
:1008D800DD000A128A1147210A128A110A128A11A6
:1008E80004200A128A11F501F50ACB30F600883087
:1008F800F70001300A128A1103220A128A11F5013F
:10090800F50AFC30F6008830F70002300A128A1126
:1009180003220A128A113330FD00BB30FC00DF309D
:10092800FB00FB0B952CFC0B952CFD0B952C9C2CA4
:100938004A30F2000030F3000A128A15F1260A1232
:100948008A110D300A128A159C260A128A111A3049
:10095800FD005E30FC006E30FB00FB0BB12CFC0B85
:10096800B12CFD0BB12C00001A30FD005E30FC00EC
:100978006E30FB00FB0BBE2CFC0BBE2CFD0BBE2C03
:1009880000000A128A157E260A128A11003A0319F3
:10099800080083120313E101E20100306202023011
:1009A800031961020318F32C8C1ED82C1A08FB00BB
:1009B8007B08E0006008FB006108533E84007B0868
:1009C800831380000130E1070318E20A0030E207D0
:1009D80000306202023003196102031CD82CD501D1
:1009E8005B30FB007B08F00053300A128A1537276A
:1009F8000A128A11710883120313DF007008DE00DF
:100A08004A30F2000030F3000A128A15F1260A1261
:100A18008A110D300A128A159C260A128A111A3078
:100A2800FD005E30FC006E30FB00FB0B192DFC0B4B
:100A3800192DFD0B192D00007E30F2008830F300CF
:100A48000A128A15F1260A128A110D300A128A151D
:100A58009C260A128A111A30FD005E30FC006E30A6
:100A6800FB00FB0B352DFC0B352DFD0B352D000048
:100A78001A30FD005E30FC006E30FB00FB0B422D8F
:100A8800FC0B422DFD0B422D00009C30F2008830FB
:100A9800F3000A128A15F1260A128A110D300A1279
:100AA8008A159C260A128A111A30FD005E30FC0055
:100AB8006E30FB00FB0B5E2DFC0B5E2DFD0B5E2DDF
:100AC80000001A30FD005E30FC006E30FB00FB0BAE
:100AD8006B2DFC0B6B2DFD0B6B2D00005A30F200BB
:100AE8008830F3000A128A15F1260A128A110D308D
:100AF8000A128A159C260A128A111A30FD005E30E5
:100B0800FC006E30FB00FB0B872DFC0B872DFD0BCB
:100B1800872D00001A30FD005E30FC006E30FB00AF
:100B2800FB0B942DFC0B942DFD0B942D00001A301B
:100B3800FD005E30FC006E30FB00FB0BA12DFC0BB2
:100B4800A12DFD0BA12D0000AC30F2000030F30008
:100B58000A128A15F1260A128A110D300A128A150C
:100B68009C260A128A111A30FD005E30FC006E3095
:100B7800FB00FB0BBD2DFC0BBD2DFD0BBD2D00009F
:100B88001A30FD005E30FC006E30FB00FB0BCA2DF6
:100B9800FC0BCA2DFD0BCA2D00001A30FD005E307B
:100BA800FC006E30FB00FB0BD72DFC0BD72DFD0B8B
:100BB800D72D00000A128A1104200A128A11F501A1
:100BC800F50AEC30F6008830F70001300A128A1175
:100BD80003220A128A11F501F50ADC30F600883082
:100BE800F70002300A128A1103220A128A111A30F7
:100BF800FD005E30FC006E30FB00FB0B012EFC0B91
:100C0800012EFD0B012E00000800F9004A30F20009
:100C18000030F3000A128A15F1260A128A110D30E3
:100C28000A128A159C260A128A111A30F8005E30B8
:100C3800F7006E30F600F60B1F2EF70B1F2EF80B81
:100C48001F2E00003830F2000030F3000A128A1517
:100C5800F1260A128A110D300A128A159C260A12E8
:100C68008A113330F800BB30F700DF30F600F60B9E
:100C78003B2EF70B3B2EF80B3B2E422E3330F80061
:100C8800BB30F700DF30F600F60B482EF70B482E86
:100C9800F80B482E4F2ED130F2000030F3000A1224
:100CA8008A15F1260A128A110D300A128A159C2615
:100CB8000A128A113330F800BB30F700DF30F60033
:100CC800F60B642EF70B642EF80B642E6B2E333064
:100CD800F800BB30F700DF30F600F60B712EF70B8B
:100CE800712EF80B712E782EB730F2008830F30091
:100CF8000A128A15F1260A128A110D300A128A156B
:100D08009C260A128A113330F800BB30F700DF3016
:100D1800F600F60B8D2EF70B8D2EF80B8D2E942EDC
:100D28003330F800BB30F700DF30F600F60B9A2EB0
:100D3800F70B9A2EF80B9A2EA12E1A30F8005E3077
:100D4800F7006E30F600F60BA72EF70BA72EF80B60
:100D5800A72E00000030F2008830F3000A128A152E
:100D6800F1260A128A117908F2000030F3000A12FB
:100D78008A15F1260A128A114E30F2008930F300E2
:100D88000A128A15F1260A128A117408F200003034
:100D9800F3000A128A15F1260A128A115730F20056
:100DA8008930F3000A128A15F1260A128A11750889
:100DB800F2000130F3000A128A15F1260A128A118C
:100DC8006030F2008930F3000A128A15F1260A12FF
:100DD8008A110D300A128A159C260A128A1133309C
:100DE800F800BB30F700DF30F600F60BF92EF70BF2
:100DF800F92EF80BF92E002F3330F800BB30F7002E
:100E0800DF30F600F60B062FF70B062FF80B062F30
:100E18000D2F1A30F8005E30F7006E30F600F60B32
:100E2800132FF70B132FF80B132F00001A30F800AD
:100E38005E30F7006E30F600F60B202FF70B202FF0
:100E4800F80B202F0000B730F2008830F3000A12A8
:100E58008A15F1260A128A110D300A128A159C2663
:100E68000A128A113330F800BB30F700DF30F60081
:100E7800F60B3C2FF70B3C2FF80B3C2F432F1A3067
:100E8800F8005E30F7006E30F600F60B492FF70BCE
:100E9800492FF80B492F00002D30F2000130F300E4
:100EA8000A128A15F1260A128A110D300A128A15B9
:100EB8009C260A128A113330F800BB30F700DF3065
:100EC800F600F60B652FF70B652FF80B652F6C2FC7
:100ED8003330F800BB30F700DF30F600F60B722F26
:100EE800F70B722FF80B722F792F3330F800BB30C5
:100EF800F700DF30F600F60B7F2FF70B7F2FF80B8C
:100F08007F2F862FC530F2000030F3000A128A15B1
:100F1800F1260A128A110D300A128A159C260A1225
:100F28008A113330F800BB30F700DF30F600F60BDB
:100F38009B2FF70B9B2FF80B9B2FA22F3330F8001A
:100F4800BB30F700DF30F600F60BA82FF70BA82F01
:100F5800F80BA82FAF2F08008317F030FD000130E1
:100F6800FE00A330FF00903084000A128A15AF26D5
:100F78000A128A113D30FD000F30FE005C30FF0080
:100F8800103084000A128A15AF260A128A118313B8
:100F9800DD30FD000030FE003C30FF00A030840052
:100FA8000A128A15AF260A128A114D30FD00003048
:100FB800FE000F30FF00203084000A128A15AF2689
:100FC8000A128A1183173D3084005C300A128A1590
:100FD80094260A128A118313DD308400EA300A123B
:100FE8008A159426E701E801E901EA01EB01EC0121
:100FF80083010A128A11312B413454342B3448347A
:1010080054345434503450344134523441343D34DF
:101018002234553452344C3422342C34223468343B
:101028007434743470343A342F342F346C346F344D
:1010380061346434733468346534643464346934D2
:101048006E3467342D343034303431342D347334C5
:1010580069347434653431342E343134743465343D
:101068006D347034753472346C342E3463346F34A8
:101078006D342F34743476346D3431342E34703406
:10108800683470343F34763461346C347534653484
:1010980031343D3435343834373426347634613499
:1010A8006C347534653432343D340034413454344E
:1010B8002B34533441345034423452343D34333475
:1010C8002C3431342C342234413450344E342234CC
:1010D8002C342234613469347234743465346C3499
:1010E80067347034723473342E3463346F346D342F
:1010F80022340034413454342B3453344134503482
:10110800423452343D3433342C3431342C34223488
:1011180043346F346E347434793470346534223423
:101128002C3422344734503452345334223400346B
:10113800413454342B3453344134503442345234CF
:101148003D3433342C3431342C342234413450344B
:101158004E3422342C34223443344D344E34453406
:10116800543422340034413454342B344834543405
:101178005434503450344134523441343D342234A0
:1011880043344934443422342C3431340034473421
:10119800503452345334203463346F346E346634EC
:1011A800693467347534723469346E3467340034A2
:1011B8005334753463346334653473347334663448
:1011C80075346C346C3479342E342E342E34003427
:1011D8004734503452345334203463346F346E34CB
:1011E8006634693467347534723465346434003471
:1011F80050346C3465346134733465342034773456
:101208006134693474342E342E342E34003453341B
:1012180054344134463446343A342034533449340F
:10122800563441340034533454344134463446340B
:101238003A3420345234413447345534003453342A
:1012480054344134463446343A3420344B344134EF
:101258005234553400345734613469347434693441
:101268006E3467342E342E342E34003453345434D0
:101278004134463446343A342034523441344A34C2
:1012880000342034573445344C3443344F344D34CF
:10129800453400342634763461346C34753465341E
:1012A80033343D3400342634763461346C34753448
:1012B800653434343D34003422340D340A34003477
:1012C8005934453453340034FF1B722983137F1873
:1012D80083170008840A0319FF0A08007F087F396A
:0C12E8008A000408840A0319FF0A82002F
:101CFC000030831203138C1A013008008312031373
:101D0C000616831603138615061208008312031396
:101D1C00061583160313861406110800640080014F
:101D2C00840A0406031900340406952EF100831668
:101D3C000313981C9D2E7108831203139900103005
:101D4C00F000F00BA72E000008007E088A007F0828
:101D5C008200AB260A128A158000840A04087D06CC
:101D6C0003190034FF0A0319FE0AAF2EF000701C91
:101D7C00C32E831203130816C62E831203130812E4
:101D8C00F01CCA2E8816CB2E8812701DCF2E081769
:101D9C00D02E0813F01DD42E8817080088130800C5
:101DAC00F300831203138810081173080A128A15A2
:101DBC00BC260A128A158312031308141A30F20077
:101DCC00F830F100F10BE82EF20BE82E0000831234
:101DDC00031308100800730883120313FF00720822
:101DEC0084000A128A1568210A128A15003A03190E
:101DFC000800730883120313FF00720884000A1290
:101E0C008A1568210A128A150A128A159C260A124A
:101E1C008A150130F2070318F30AF12E8316031307
:101E2C00871707132430980018159030831203136A
:101E3C0098008316031398168312031398178316AE
:101E4C000313181283120313181683160313981610
:101E5C00181383120313181381308316031399007C
:101E6C000800F500412F0130F2007208F50701302F
:101E7C00F2007208F0077508840083130008F20062
:101E8C00700884000003FF3A7207F3007308F40033
:101E9C007408031D562F750884000008031D392F84
:101EAC007408F000F101F01BF103080030343034F9
:101EBC0030343034313434343934353436343834D5
:101ECC0032340034413454342B3443344934503498
:101EDC00473453344D344C344F3443343D34313423
:101EEC002C3431340034413454342B34483454348D
:101EFC005434503441344334543449344F344E34D4
:101F0C003D3430340034F40074080F39F10071089A
:101F1C00F2007408F039F1007108F3008312031316
:101F2C00881408117308F10004300310F10CFF3E03
:101F3C00031D9B2F71080A128A15BC260A128A15DA
:101F4C008312031308144230F100F10BAB2F000085
:101F5C0083120313081072080A128A15BC260A127F
:101F6C008A158312031308144230F100F10BBC2FB5
:101F7C0000008312031308100800FA01FB017A0811
:101F8C007507F8007608F7000318F70AFA1BF70331
:101F9C007708F900790883120313FF00780884008E
:101FAC000A128A1568210A128A15003A03190800C8
:101FBC007A087507F8007608F7000318F70AFA1B79
:101FCC00F7037708F900790883120313FF007808E8
:101FDC0084000A128A1568210A128A150A128A15B7
:101FEC0089270A128A150130FA070318FB0A0030F8
:041FFC00FB07C52FEB
:02400E003A3F37
:00000001FF
