:060000000A128A11122809
:10000800FE00030E83120313A3000408A4000A08C9
:10001800A5007F08A6000A128A11E42E0A128A1186
:100028001528FC01FD0183010A128A111B28FF30E3
:100038008316031385008801061183120313061122
:100048008B170B170B168316031301138B100A1249
:100058008A152F270A128A110A128A15C0270A122E
:100068008A110A128A11ED240A128A110A128A15B3
:100078004D270A128A11053083120313D100510843
:10008800AB0001300A128A114E250A128A115F301C
:1000980083120313AC008030AD000A128A11EA25DE
:1000A8000A128A11333083120313D300BB30D200F3
:1000B800DF30D100D10B5E28D20B5E28D30B5E282F
:1000C800023083120313D1005108AB0001300A1229
:1000D8008A114E250A128A11213083120313AC00AB
:1000E8008030AD000A128A11EA250A128A110630F8
:1000F80083120313D1005108AB0002300A128A118F
:100108004E250A128A11673083120313AC0080301F
:10011800AD000A128A11EA250A128A1133308312B5
:100128000313D300BB30D200DF30D100D10B9A28A3
:10013800D20B9A28D30B9A280A128A154D270A122D
:100148008A11033083120313D3008A30D20055304A
:10015800D100D10BAD28D20BAD28D30BAD28003080
:100168000A128A118E270A128A1183120313280889
:1001780083160313B500831203132708831603138A
:10018800B400350883120313B00083160313340830
:1001980083120313AF000A128A1570270A128A11F4
:1001A800831203132F08B6003008B7003108B800CF
:1001B8005E30B300FA30B4003E30B5000A128A113E
:1001C80092220A128A11831203133308C3003408D7
:1001D800C4003508C5000A128A1165230A128A115B
:1001E80083120313440883160313B5008312031301
:1001F800430883160313B40000303502293003196D
:100208003402031C4C298312031306152F30A8004F
:100218008030A9000A128A11C1270A128A11831292
:100228000313AB01AB0A02300A128A114E250A12D7
:100238008A110B3083120313AC008030AD000A1210
:100248008A11EA250A128A1183120313AB01AB0A39
:1002580002300A128A114E250A128A114D30831271
:100268000313AC008030AD000A128A11EA250A1285
:100278008A11403083120313D3006A30D2009730BA
:10028800D100D10B4529D20B4529D30B4529582933
:100298008312031306115630A8008030A9000A12F1
:1002A8008A11C1270A128A11433083120313D1001D
:1002B8005108B50083160313350883120313B700DA
:1002C80083160313340883120313B600A0300A12EE
:1002D8008A11BC210A128A11A03083120313A800C4
:1002E8000030A9000A128A11C1270A128A110A12BB
:1002F8008A154D270A128A1183120313AB01AB0A20
:1003080001300A128A114E250A128A11A03083126E
:100318000313AC000030AD000A128A11EA250A1254
:100328008A110A3083120313D1005108AB0001303F
:100338000A128A114E250A128A116D30831203138C
:10034800AC008030AD000A128A11EA250A128A111F
:100358001A3083120313D3005E30D2006D30D100FF
:10036800D10BB429D20BB429D30BB429BB29A528A6
:1003780083120313C0003630B8003808BB000130C0
:10038800B507FF30350784000A128A110A240A12B9
:100398008A11B8003808C100410803198D2A253090
:1003A80041060319E3294108B800400884003808C9
:1003B800831380000130B8003808C007C329BC0186
:1003C8000130B507FF30350784000A128A110A2464
:1003D8000A128A11C100003A03198D2A643A0319D6
:1003E800F9290D3A0319F929C3293B088400831315
:1003F8000008BE00840A0008BF000230B8003808B0
:10040800BB07BF1F102A0330B8003808BC04BE0958
:10041800BF09BE0A0319BF0AC101C10A0530410656
:100428000319372A4108B8003807013E84000A1228
:100438008A110A240A128A11B9000A128A110A2496
:100448000A128A11BA003A083F02031D2D2A3908F8
:100458003E02031C372A0130B8003808C1070530AE
:100468004106031D162A3C0803390319462A2D3074
:10047800B800400884003808831380000130B800B1
:100488003808C0074108B8003808BD00FF30B80078
:100498003808BD073D0A0319C3290A30AF000030E8
:1004A800B0003D08B8003807013E84000A128A11DE
:1004B8000A240A128A11A7000A128A110A240A12A7
:1004C8008A11A8003F08AA003E08A9000A128A114A
:1004D8002B260A128A11831203132808B200270850
:1004E800B1000A128A115A270A128A1183120313B9
:1004F8002F08303EB9003908C1004108B80040084B
:1005080084003808831380000130B8003808C00719
:100518004A2A4008840083138001080083120313C9
:100528003308B9003408BA003508BB0003103A0D87
:100538003B0DBC003C08BD003D08031DAA2A003045
:10054800B3000030B4000030B50008003608B90028
:100558003708BA003808BB0003103A0D3B0DBC0041
:100568003C08C2004208031DC02A0030B300003016
:10057800B4000030B500080042087B3EB9003908D5
:10058800BD073308B9003408BA003508BB0010307D
:100598000310BB0CBA0CB90CFF3E031DCC2A39085A
:1005A800BC003C08C2003608B9003708BA00380851
:1005B800BB0010300310BB0CBA0CB90CFF3E031D76
:1005C800DE2A3908BC003C08C2068030B900390868
:1005D800C205B417B717FF30B605FF30B7050030AE
:1005E800B8050030BE000030BF000030C000073042
:1005F800B9003908C100331C0F2B3608BE0737086D
:1006080003110318370A031DBF073808031103181D
:10061800380A031DC00701300310B50CB40CB30C25
:10062800FF3E031D102B01300310B60DB70DB80D9A
:10063800FF3E031D182B0130C102031DFF2A09309C
:10064800B9003908C100331C372B3608BE073708F4
:1006580003110318370A031DBF07380803110318CD
:10066800380A031DC00701300310B50CB40CB30CD5
:10067800FF3E031D382B01300310C00CBF0CBE0C0D
:10068800FF3E031D402B0130C102031D272B3E08EE
:10069800A7003F08A8004008A9003D08B90039088C
:1006A800AA004208BA003A08AB000A128A117F244D
:1006B800831203132708B3002808B4002908B500DB
:1006C8000800831203134308C7004408C8004508FC
:1006D800C9000310480D490DCA004A08D000500847
:1006E800031D7F2B0030C6000030C5000030C40059
:1006F8000030C30008004308C7004408C800450884
:10070800C90017300310C90CC80CC70CFF3E031DE5
:10071800862B4708CA004A08CB00C417FF30C30518
:10072800FF30C4050030C5054308CC004408CD009F
:100738004508CE00CF018E30D002D01FC12B500803
:10074800803A8F3E0318B12B0030C6000030C50038
:100758000030C4000030C300080001300310CF0C83
:10076800CE0CCD0CCC0CFF3E031DB22B0130C700C4
:100778004708D0070319DC2BB12B18305002031C93
:10078800D92B0030C6000030C5000030C40000304E
:10079800C30008000130C7000310CC0DCD0DCE0DED
:1007A800CF0DC70BD02B0130D0025008031DCE2B24
:1007B8004B080319EA2BCC09CD09CE09CF09CC0A7D
:1007C8000319CD0A0319CE0A0319CF0A4F08C60028
:1007D8004E08C5004D08C4004C08C3000800831229
:1007E8000313A70083160313981CF62B8312031315
:0607F8002708990008002B
:10080000FF1B0A2C83137F1883170008840A03191F
:10081000FF0A080004308A000408840A82070034B2
:10082000013400340A34003464340034E8340334CE
:100830001034273420342034203420342034203421
:100840002034203420342034203420342034203408
:100850002034203420342034203420342034003418
:1008600046344934523445342034463449344734CC
:100870004834543449344E344734003454344534C5
:100880004D345034203448344934473448340034EB
:1008900045344D3445345234473445344E34433472
:1008A00059340034743465346D34703420343D343C
:1008B00020342534643400344D344F3454344F34B0
:1008C000523420344F344E340034543445344D3493
:1008D000503420344C344F3457340034573445347A
:1008E0004C3443344F344D344534003452344F3457
:1008F00042344F34543400342734433400348312A8
:1009000003132A080319892C290828042704031D26
:100910009C2C0030A7000030A8000030A90008007F
:100920000130AC002C08AA0701300310A90CA80C58
:10093000A70CFF3E031D952CFE3029050319B72C8B
:10094000902C0130AC002C08AA070130A70700301A
:1009500003180130A807003003180130A90701303F
:100960000310A90CA80CA70CFF3E031DB02CFF30F0
:1009700029050319C62CA12C0130AA02013003104D
:10098000A70DA80DA90DFF3E031DBF2CA81BCC2C45
:1009900002302A020318BC2C2A18D42CFF30A705D9
:1009A0007F30A805FF30A9050310AA0C2A08AC0067
:1009B000AD01AE0110300310AC0DAD0DAE0DFF3E1C
:1009C000031DDB2C2C08A7042D08A8042E08A9045D
:1009D0002B0803190800A917080000300A128A150D
:1009E00058270A128A11823083120313AC00DD30BB
:1009F000AB00AB0BF92CAC0BF92C03300A128A15A7
:100A0000A3270A128A11213083120313AC00753018
:100A1000AB00AB0B092DAC0B092D0E2D03300A12C8
:100A20008A15A3270A128A11483083120313AC00D7
:100A30006B30AB00AB0B1A2DAC0B1A2D1F2D0330F6
:100A40000A128A15A3270A128A1102300A128A157D
:100A5000A3270A128A1102300A128A15A3270A1242
:100A60008A1108300A128A15A3270A128A11003047
:100A70000A128A15A3270A128A110C300A128A1543
:100A8000A3270A128A1100300A128A15A3270A1214
:100A90008A1106300A128A15A3270800831203134D
:100AA000AE002E03031D772D2B087F3EAC002C08D3
:100AB000B1003108AC0004300310AC0CFF3E031D44
:100AC0005C2D2C08AD002D08AF0031080F39AC00AB
:100AD0002C08B0002F080A128A15A3270A128A11BF
:100AE0008312031330080A128A15A3270800023064
:100AF000831203132E06031D08002B08BF3EAC0013
:100B00002C08B1003108AC0004300310AC0CFF3EDF
:100B1000031D852D2C08AD002D08AF0031080F39BD
:100B2000AC002C08B0002F080A128A15A3270A125D
:100B30008A118312031330080A128A15A3270800AA
:100B4000F7007703031DC52D74087F3EF500750877
:100B5000FA007A08F50004300310F50CFF3E031D7F
:100B6000AC2D7508F6007608F8007A080F39F50004
:100B70007508F90078080A128A1588270A128A115E
:100B800079080A128A158827080002307706031DA3
:100B900008007408BF3EF5007508FA007A08F500F1
:100BA00004300310F50CFF3E031DD12D7508F6002F
:100BB0007608F8007A080F39F5007508F90078080A
:100BC0000A128A1588270A128A1179080A128A15C8
:100BD0008827080083120313B101B20131082C07E2
:100BE000AF002D08AE000318AE0AB11BAE0383128E
:100BF00003132E08B0003008FF002F0884000A12EB
:100C00008A1100240A128A11003A031908003108D7
:100C10002C07AF002D08AE000318AE0AB11BAE03BF
:100C2000831203132E08B0003008FF002F08840041
:100C30000A128A1100240A128A110A128A116926DC
:100C40000A128A11013083120313B1070318B20A82
:100C50000030B207EE2D83120313AC01AD0127085B
:100C600028040319642EAE01AE0AA81B432E0130DE
:100C70000310A70DA80DFF3E031D382E0130AB0059
:100C80002B08AE07352E01300310AC0DAD0DFF3E25
:100C9000031D442E28082A02031D502E270829026E
:100CA000031C592E2708A9022808031CAA03AA021C
:100CB0002C1401300310A80CA70CFF3E031D5A2E64
:100CC0000130AE02031D432E2D08A8002C08A700FA
:100CD000080083120313AB002B080F39A800280863
:100CE000A9002B08F039A8002808AA0088140811C8
:100CF0002A08A80004300310A80CFF3E031D7B2E19
:100D000028080A128A1558270A128A118312031317
:100D10000814413083120313A800A80B8D2E902EC7
:100D200083120313081029080A128A1558270A1279
:100D30008A11831203130814413083120313A8008D
:100D4000A80BA02EA32E8312031308100800FA018B
:100D5000FB017A087507F8007608F7000318F70A10
:100D6000FA1BF7037708F900790883120313FF00D1
:100D7000780884000A128A1100240A128A11003AA3
:100D8000031908007A087507F8007608F7000318B9
:100D9000F70AFA1BF7037708F9007908831203139F
:100DA000FF00780884000A128A1100240A128A11AE
:100DB0000A128A1120270A128A110130FA07031831
:100DC000FB0A0030FB07A92E8B100A128A15422756
:100DD0000A128A11F401F40A02300A128A11A025BB
:100DE0000A128A113930F5008030F6000A128A1191
:100DF000A7260A128A113930F1008030F2000A1257
:100E00008A15DD270A128A111A3083120313A200F1
:100E10005E30A1006D30A000A00B0C2FA10B0C2F99
:100E2000A20B0C2F132F831203132608FF00250893
:100E30008A0024088400230E8300FE0E7E0E090023
:100E4000F40074080F39F1007108F2007408F039E9
:100E5000F1007108F300831203138814081173085A
:100E6000F10004300310F10CFF3E031D322F710816
:100E70000A128A11E6270A128A1183120313081430
:100E80004230F100F10B422F0000831203130810CF
:100E900072080A128A11E6270A128A1183120313B2
:100EA00008144230F100F10B532F0000831203139A
:100EB00008100800831203132F0830040319892F28
:100EC000B401B40AB01B702F01300310AF0DB00D88
:100ED000FF3E031D652F0130B3003308B407622FB6
:100EE00030083202031D762F2F083102031C7E2F9B
:100EF0002F08B1023008031CB203B2020130031004
:100F0000B00CAF0CFF3E031D7F2F0130B402031D58
:100F1000702F3208B0003108AF00080083120313AD
:100F2000AB0008302B02031C982FA701A801080072
:100F3000C530A90029089F052B08A900023003101D
:100F4000A90DFF3E031D9F2F0310290DAA002A089B
:100F50009F040D3083120313AA00FB30A900A90BD4
:100F6000AF2FAA0BAF2F831203131F151F19B62F14
:100F70001E08A800831603131E0883120313A7007C
:100F80000800831203132908FF00280884000A12AE
:100F90008A1100240A128A11003A031908008312E8
:100FA00003132908FF00280884000A128A1100246C
:100FB0000A128A110A128A11F3230A128A110130C5
:100FC00083120313A8070318A90AC12FF000701C8D
:100FD000ED2F831203130816F02F83120313081248
:100FE000F01CF42F8816F52F8812701DF92F0817A2
:100FF000FA2F0813F01DFE2F881708008813080029
:101E5E004130831203139F008030831603139F00BB
:101E6E000800F00083160313981C392F7008831294
:101E7E0003139900080000300A128A1588270A12E7
:101E8E008A1501300A128A158827080000300A12B6
:101E9E008A15A3270A128A1501300A128A15A3275A
:101EAE00080083120313A700271C5F2F0816602F4C
:101EBE000812A71C642F8816652F8812271D692FFC
:101ECE0008176A2F0813A71D6E2F8817080088138E
:101EDE000800831203132F08A7003008A800A901D9
:101EEE008E30B2003208AA00AB010A128A117F248A
:101EFE00831203132708AF002808B0002908B10089
:101F0E000800F300831203138810081173080A12D5
:101F1E008A11E6270A128A158312031308141A303F
:101F2E00F200F830F100F10B9A2FF20B9A2F00000D
:101F3E00831203130810080083120313AA008810DB
:101F4E0008112A080A128A1558270A128A158312AE
:101F5E00031308141A3083120313A900F730A800D4
:101F6E00A80BB72FA90BB72FBC2F83120313081082
:101F7E0008008316031387170713243098001815CB
:101F8E00903083120313980083160313981683124E
:101F9E0003139817831603131812831203131816BC
:101FAE008316031398168130990008007208831265
:101FBE000313FF00710884000A128A1100240A120A
:101FCE008A15003A03190800720883120313FF00E2
:101FDE00710884000A128A1100240A128A150A1244
:101FEE008A1538270A128A150130F1070318F20AEA
:021FFE00DD2FD5
:02400E003A3F37
:00000001FF
